S02100004441435F515549434B5F53544152545F43414C4C4241434B312E73726563B5
S113000000210020B50E0000B10E0000B10E00006A
S113001000000000000000000000000000000000DC
S1130020000000000000000000000000B10E00000D
S11300300000000000000000B10E0000B10E00003E
S1130040B10E0000B10E000021090000B10E000045
S1130050B10E0000B10E0000B10E0000D105000089
S1130060B10E0000B10E0000B10E0000B10E000090
S1130070B10E0000B10E0000B10E0000B10E000080
S1130080B10E0000B10E0000B10E0000B10E000070
S1130090B10E0000B10E0000B10E0000B10E000060
S11300A061040000B10E0000B10E0000B10E0000AA
S11300B00000000010B5064C2378002B07D1054B37
S11300C0002B02D0044800E000BF0123237010BDC0
S11300D01800002000000000EC120000084B10B5CE
S11300E0002B03D00749084800E000BF0748036815
S11300F0002B00D110BD064B002BFBD09847F9E72D
S1130100000000001C000020EC120000EC120000B3
S1130110000000000C4B1B68002B06D1EFF310838A
S1130120002B07D00022094B1A70074A13680133C9
S11301301360704772B6BFF35F8F0022044B1A70CE
S11301400132024B1A70F0E734000020380000201E
S113015000000020084B1A68013A1A601B68002B43
S113016009D1064B1B78002B05D00122044B1A70D1
S1130170BFF35F8F62B67047340000203800002060
S113018000000020F0B583B001AC012565700027A4
S1130190A770257021002A20064EB0478022D20085
S11301A0054B9A612770657021000220B04703B0A7
S11301B0F0BDC04615070000802800400368986819
S11301C0431E9841C0B27047002303700622427058
S11301D08370704730B583B0050014000160164A7F
S11301E0D06980235B010343D3610B781C209B07F8
S11301F001D503B030BD0B781738DB07F9D401A95A
S1130200A3780B701B300D4B984720200C4B98475C
S113021000236B71AB71227861780A4329684A70B4
S113022062782A712B626B62AB62EB622B636B6345
S1130230044B1D600020DCE700040040550D000065
S1130240E50C00007800002070B504000568114E2C
S11302502000B0470028FBD12B78022213432B70D7
S11302602379062B07D0AB899B070AD50122EB79AA
S11302701342FCD070BD084AD36904210B43D361F7
S1130280F1E7EB899B07F5D50222EB791342FCD009
S1130290F0E7C046BD0100000014004010B504683A
S11302A00B795A1E93411B014A79002A01D020225E
S11302B013438A78002A01D004221343CA78002AFF
S11302C001D0082213430A78002A02D001221343E2
S11302D042714A78002A03D002221343013A827100
S11302E0A2781343DBB2A37010BD0023037008226D
S11302F042708370C37002330371704770B582B06B
S113030006000C00150001AB00225A70DA709A70D6
S113031000291CD0012921D031686B782A781A432E
S1130320AB78002B01D040231A43EB78002B01D08B
S113033080231A432B791B02F0200001034013434E
S11303409BB2043464000C19A38002B070BD190080
S113035001230B700220054B9847DDE701A9012317
S11303600B700520014B9847D6E7C046510E00009C
S11303704B000168C9188B89022213438B81704793
S1130380F0B5CE4600B582B004000D000092019392
S113039043185B791520002B03D102B004BC9146AD
S11303A0F0BD4F00E7193B8A9BB21038002BF4D103
S11303B0631838331B78052BEFD023689946144E05
S11303C02000B0470028FBD16319383305221A7086
S11303D06B469E883E82AB1C9B00009A1A510023F8
S11303E0BB82802252040B4B1A60002D03D0012DD6
S11303F007D00020D1E705234A46937153710020AA
S1130400CBE70A234A46937153710020C5E7C046DF
S1130410BD01000000E100E030B544186579152401
S1130420002D01D1200030BD0234022BFAD84C003B
S11304306118CB1808339B001A500024F2E710B55A
S113044043185C791523002C01D1180010BD4B0012
S1130450591840188018012303760023F5E700009B
S113046070B5594B1C682568AB79DB074BD5012364
S1130470AB712300203346D0637E002B3FD1AB7990
S11304809B0700D499E00223AB71237F002B4BD14F
S1130490AB795B0704D50423AB71237E002B47D1D2
S11304A0238A9BB2002B4BD0A38A9BB25A1C92B2D4
S11304B0A2825B00A268944663441B889BB2AB8211
S11304C0238A013B9BB22382238A9BB2002B37D120
S11304D000223833E254343B2B71AB718021490440
S11304E07C333A4AD1502300203329D0A37E002BF9
S11304F022D1AB791B072ED50823AB7128E000204D
S1130500636A9847BBE7AB799B0704D50223AB71B9
S113051023002033B9D1AB795B07C1D50423AB7178
S113052023002033B9D1BBE70020236B9847AFE702
S11305300020236A9847B3E70020A36A9847D8E7C6
S1130540AB791B0707D50823AB712300203302D0F6
S1130550E37E002B29D1638A9BB2002B24D0E38A4B
S11305609BB25A1C92B2E2825B00E26894466344F6
S11305701B889BB2EB82638A013B9BB26382638AD2
S11305809BB2002B10D100223933E254313B2B7142
S1130590AB718021490478330C4AD15023002033B5
S11305A002D0637F002B04D170BD0020E36A98471A
S11305B0D1E7636B00209847F6E7AB795B0700D47B
S11305C06EE70423AB7168E77800002000E100E0E7
S11305D010B50C4B1C698621C9058A6998680243C9
S11305E09A60094B8B61002C05D02068636898479A
S11305F0A468002CF9D1034BD9689A688A439A609D
S113060010BDC04604000020FF0FFF0F06490B6A0F
S1130610012213430B628623DB051A7019000B7841
S11306201342FCD17047C04600040040012303700C
S1130630002343708370C3700371437170470000DB
S113064070B582B005000E00254B9847254B1B68FA
S1130650DA070ED55B08012401221A420AD05B088E
S11306600134E4B20C2CF8D11F4B9847142002B08B
S113067070BD00241B4A11680123A3400B4313607F
S11306801379013B1371184B98471420FF2CEED0BB
S11306902C707378022B0AD001A9F3780B700534FF
S11306A0E4B22000114B98472000114B9847B278D0
S11306B07F2313403279920313437279D203134395
S11306C072781202C02189000A40134332789202E0
S11306D0C02109010A4013436B600020C7E7C046EC
S11306E0150100000400002055010000550D000014
S11306F0E50C0000027801321F2313408622D20544
S1130700203189008B500378416808339B0099504D
S11307100020704700B583B001AB80221A700A78BC
S11307205A704A789A708A78DA701900014B98479F
S113073003B000BD510E000003681869431E9841C0
S1130740C0B2704770B5040006680422084B1A60F2
S1130750084D2000A8470028FBD133880222134308
S11307603380044D2000A8470028FBD170BDC0464B
S113077000E100E03907000070B5040006680421B8
S113078080230A4AD1500A4D2000A8470028FBD1F3
S1130790084B3381B3813388022293433380044D61
S11307A02000A8470028FBD170BDC04600E100E04E
S11307B039070000FF81FFFF70B5040006680A4B8B
S11307C098470023A386E386084D2000A847002805
S11307D0FBD13388012213433380044D2000A84702
S11307E00028FBD170BDC04679070000390700001E
S11307F0F0B583B00400019115000668134F200082
S1130800B8470028FBD12379002B0ED0012B19D136
S11308101730012D17D80835AD00019BAB510B4D96
S11308202000A8470028FBD10DE01720022D0AD88C
S1130830074B019A9A4206D86B469B8810356D0087
S1130840AB53ECE71A2003B0F0BDC04639070000F3
S1130850FFFF000070B50400150001601F4A5169D4
S113086080235B000B43536100221D4B1A611D4B17
S11308709847AB7823711C4B1C6022682B79DB03EF
S113088029880B439BB21380AB78002B13D017201D
S1130890012B0FD113889BB21380EB78002B03D06C
S11308A0138880210B431380A968002220000F4B7A
S11308B09847002070BD138804210B431380EB7804
S11308C01720002BF6D10022A9682000074EB0475C
S11308D0E96801222000B0470020EBE70004004053
S11308E000100040B90700007C000020F107000060
S11308F0F8B504000E0003791520002B00D0F8BDD4
S11309002768064D2000A8470028FBD1BE83034D6D
S11309102000A8470028FBD1F1E7C04639070000B2
S1130920F8B5DE4657464E464546E0B52B4B1B68A8
S11309309A461E68DB8E5246928E1A409046B289C1
S1130940738913401AB2002A08DBFF271F402AD0FC
S1130950002401239946FE339B4614E043465B057D
S113096007D41F4BB3813CBC90469946A246AB4684
S1130970F8BD53461B6B9847F3E75B461D40B581B2
S11309800134082CEFD023004D46A5402F42F4D06B
S11309904246224149461142EFD002339B0052465F
S11309A09B589847E9E7DA050AD54346DB0503D4A3
S11309B080235B00B381D6E753469B6A9847F7E7E9
S11309C09B05D0D543469B0503D480239B00B3816C
S11309D0C9E75346DB6A9847F7E7C0467C00002026
S11309E00080FFFF10B5082803D880001C4B1B585B
S11309F09F46002032E01B4B18692FE01A4B187DEC
S1130A000007800F431C1948584327E0154B5869C9
S1130A1024E0144B1B6800209B071FD51249802239
S1130A205200CB681342FCD00E4B1B685B0701D409
S1130A300F4813E000200F4B98470A4B9B681B0498
S1130A401B0C58430AE02823074AD35C00209B0769
S1130A5004D5044BD86801E08020000210BDC046D4
S1130A60A81200003C000020000C004000093D00DA
S1130A70006CDC02790D000010B584B080225200B5
S1130A802F4B9A60FD3A2F4B9A602F4A53681E21D0
S1130A908B4353608023DB059B78022B0FD080238C
S1130AA0DB059B785BB2002B09DB8023DB0501228D
S1130AB09A7101329A701A009379002BFCD0204B62
S1130AC0197D802252420A431A751A7D40218A43B5
S1130AD01A751E4B98471E4C0123A3716371237131
S1130AE001A94B6000234B7006220A700B724B72F3
S1130AF00020184B98470020174B98470020174BAD
S1130B0098472179C9B2164B9847164B984214D886
S1130B108023DB059B78002B0FD08023DB059B789B
S1130B205BB2002B09DB8023DB0501229A710022D2
S1130B309A701A009379002BFCD004B010BDC04603
S1130B40000C00400014004000400041690B00000C
S1130B50000400408D0B0000390C0000790C0000EB
S1130B6039110000001BB700064A536940210B43AA
S1130B7053610122044B1A7019000B781342FCD103
S1130B807047C046000400400018004070B50400DF
S1130B900D784B78002B02D08023DB001D434B7A69
S1130BA0002B02D080231B011D43486801280FD964
S1130BB0431E184231D102282DD9022300220132CA
S1130BC05B009842FBD880235B011D43120415434C
S1130BD00B7A002B02D080239B011D430426A640E0
S1130BE01149124A4B6813401E42FBD1104B9847DF
S1130BF0A4000D4B9C466444226A80235B001A4087
S1130C002A4322626146094A4B6813401E42FBD1C3
S1130C10084B984770BD0022D5E7000480239B0051
S1130C2018430543D4E7C04600180040FC07000001
S1130C30150100005501000010B504000422824093
S1130C4009480A4943680B401A42FBD1084B9847AC
S1130C50A400054B9C466444226A80235B00134332
S1130C602362044B984710BD00180040FC070000A5
S1130C701501000055010000F8B50400042282406B
S1130C801248134943680B401A42FBD1114B984751
S1130C900E4F0834A400E0590007000F0E4B98478C
S1130CA00600E559ED04ED0FE459240C0B4B98476D
S1130CB0002D07D1012C07D921003000084B98479B
S1130CC0060001E00134E6403000F8BD00180040A1
S1130CD0FC07000015010000E509000055010000B3
S1130CE03911000010B50400094B9847A000094BC6
S1130CF09C4660448022835840210B4383504031FA
S1130D00403A43581A42FCD0034B984710BDC046A2
S1130D1015010000001800405501000010B5040042
S1130D20094B9847A000094B9C4660448022835895
S1130D3040218B4383504031403A43581A42FCD1FE
S1130D40034B984710BDC046150100000018004031
S1130D505501000070B504000D00054B98472A7832
S1130D600F2313402034A400024AA35070BDC04690
S1130D701D0D00000018004010B50400064B9847F4
S1130D802034A400054BE4582407240F044B98474F
S1130D902000044B984710BD1501000000180040C6
S1130DA055010000790C000030B5D378002B35D103
S1130DB01378802B29D01B068024640223435478A3
S1130DC00225AC4306D19478002C20D18024A402BF
S1130DD0234341605478013C012C1CD90D042D0C93
S1130DE0A024E4052C431C4384620D0CD024240667
S1130DF02C431C438462D478002C22D15B031CD581
S1130E009378012B1ED0416117E00023D7E7C0245B
S1130E10E4022343DDE70D4C2340DFE741600C048B
S1130E20240CA023DB05234383620C0CD0231B0674
S1130E3023438362D378002B03D15378013B012BE6
S1130E4002D930BD8161F8E78160FAE7FFFFFBFF5B
S1130E5010B50A00C1090023002904D14309DB01AC
S1130E6005498C4663441F24204001218140180019
S1130E70024B984710BDC04600280040A90D000051
S1130E807047000010B5054B9847054B9847054B34
S1130E909847054B9847054B984710BD790A0000C1
S1130EA0850100000D060000810E0000810E000087
S1130EB0FEE7000010B51A4A1A4B9A4211D01A00E4
S1130EC0194B9A420DD2194A03339B1A9B080133DA
S1130ED09B000022134812498C58845004329A42D1
S1130EE0FAD1134A134B9A420AD2D34311495B18DD
S1130EF003218B4304339B18002102C29342FCD18B
S1130F000D4AFF210D4B8B4393600D4A53687F3983
S1130F100B4353600B4B98470B4B9847FEE7C04677
S1130F20EC12000000000020180000200400002043
S1130F3018000020FC00002000ED00E0000000008C
S1130F400040004151120000951000000122014BA5
S1130F501A7070477400002010B582B068460B4BBD
S1130F60984703236A469370023B1370013353700E
S1130F700023D370064C69462000064B9847232172
S1130F802000054B984702B010BDC0462D06000056
S1130F90F400002041060000F506000030B589B0D9
S1130FA001AA0023D370012111719360D360FF3132
S1130FB011809370134C14492000144B98472568F2
S1130FC005AB5B78002B05D18021090200230124A5
S1130FD0FF2005E081210902F8E70133082B09D03D
S1130FE005AAD218D278002AF7D022009A400240EB
S1130FF01143F2E76B68194369600248044B984750
S113100009B030BD800000200020004055080000D9
S11310104507000070B584B003A80B4B98470B4CF0
S11310200126667103AA0A4920000A4B984701ADBC
S1131030062200212800084B98472E702900200022
S1131040064B984704B070BDC9010000B8000020E9
S113105000300042D5010000991200009D020000FA
S113106010B582B06846074B9847074C6A46002182
S11310702000064B984700212000054B984702B0FA
S113108010BDC046EB020000B8000020FD020000C5
S11310907103000070B5194B9847194B984701210B
S11310A01848194B9847194B9847194B9847194CAE
S11310B02000194B9847194B98470223184A0021DE
S11310C02000184DA847022200212000164B984703
S11310D0164A0023FC21890013803F339BB202325D
S11310E08B42F9D11023114A00210A48104CA04721
S11310F0104B1A78002AFCD0FEE7C046850E00008B
S11311009D0F000080000020F10800001510000071
S113111061100000B800002049020000590F0000CF
S11311204D0F0000190400003F040000540000208B
S11311308103000074000020002243088B4274D312
S113114003098B425FD3030A8B4244D3030B8B42C4
S113115028D3030C8B420DD3FF22090212BA030CCD
S11311608B4202D31212090265D0030B8B4219D3AE
S113117000E0090AC30B8B4201D3CB03C01A5241CE
S1131180830B8B4201D38B03C01A5241430B8B4216
S113119001D34B03C01A5241030B8B4201D30B03FF
S11311A0C01A5241C30A8B4201D3CB02C01A524126
S11311B0830A8B4201D38B02C01A5241430A8B42E9
S11311C001D34B02C01A5241030A8B4201D30B02D2
S11311D0C01A5241CDD2C3098B4201D3CB01C01AEC
S11311E0524183098B4201D38B01C01A52414309F6
S11311F08B4201D34B01C01A524103098B4201D3E4
S11312000B01C01A5241C3088B4201D3CB00C01A50
S1131210524183088B4201D38B00C01A52414308C8
S11312208B4201D34B00C01A5241411A00D20146ED
S1131230524110467047FFE701B5002000F006F860
S113124002BDC0460029F7D076E770477047C04614
S113125070B500260C4D0D4C641BA410A64209D198
S1131260002600F033F80A4D0A4C641BA410A64271
S113127005D170BDB300EB5898470136EEE7B300D3
S1131280EB5898470136F2E7D8120000D812000054
S1131290D8120000DC12000003008218934200D12F
S11312A0704719700133F9E7F6090000F2090000EC
S11312B0F2090000580A0000580A00000C0A000055
S11312C0FC090000120A0000460A0000F8B5C046F6
S11312D0F8BC08BC9E467047DD000000F8B5C04667
S10F12E0F8BC08BC9E467047B500000036
S11312EC01000000000000000C00000000000000E1
S10B12FC0000000000000000E6
S9030EB539
