S01300004C45445F544F47474C45312E73726563EA
S113000040200020C5050000C1050000C105000016
S113001000000000000000000000000000000000DC
S1130020000000000000000000000000C105000006
S11300300000000000000000C105000035060000BB
S1130040C1050000C1050000C1050000C105000094
S1130050C1050000C1050000C1050000C105000084
S1130060C1050000C1050000C1050000C105000074
S1130070C1050000C1050000C1050000C105000064
S1130080C1050000C1050000C1050000C105000054
S1130090C1050000C1050000C1050000C105000044
S11300A0C1050000C1050000C1050000C105000034
S11300B00000000010B5064C2378002B07D1054B37
S11300C0002B02D0044800E000BF0123237010BDC0
S11300D0040000200000000040080000084B10B598
S11300E0002B03D00749084800E000BF0748036815
S11300F0002B00D110BD064B002BFBD09847F9E72D
S11301000000000008000020400800004008000033
S113011000000000094B196800290BD1EFF310808F
S1130120074A002805D172B6BFF35F8F05490870EE
S1130130012111701A6801321A60704720000020F2
S11301402400002000000020084B1A68013A1A60BD
S11301501B68002B09D1064B1B78002B05D001220C
S1130160044B1A70BFF35F8F62B670472000002003
S11301702400002000000020F7B50125002701AC71
S1130180084E21002A206570A7702570B047802290
S1130190054BD2001A602100022027706570B04719
S11301A0F7BDC046AD0100009828004007B5802285
S11301B001AB1A700A785A704A789A708A781900D2
S11301C0DA70014B984707BD650500008023034999
S11301D05B00CA681A42FCD07047C046000C00405D
S11301E08023DB059A78824202D1002108007047FF
S11301F09A78172152B2002AF8DB01229A7198707A
S11302009A79002AFCD0F0E770B5082806D800F0E7
S11302104DFA0805052E2E130B1626000024200087
S113022070BD154B1C69FAE7144B1C7D2407A40F01
S1130230601C134C4443F2E70F4B5C69EFE70E4D2F
S113024000242B689B07EAD50E4B98472B685B0765
S113025010D520000C4B9847AC68A4B2EAE70B4BCE
S113026000241B789B07DAD5034BDC68D7E780248E
S11302702402D4E7064CD2E728000020000C0040FA
S113028000093D00CD010000B1040000280C00402D
S1130290006CDC027FB5802303221E211B4C5B0013
S11302A0A3601B4B02209A601A4A1B4D53681B4ED5
S11302B08B435360A8478023227D5B421343402233
S11302C02375237D93432375154B984701230024FD
S11302D001A9B371737133714B6005330B70200046
S11302E0104B4C700C724C72984720000E4B984780
S11302F00E4B2000984731790D4BC9B298470D4BEE
S1130300984201D82000A8477FBDC046000C004099
S11303100014004000400041E101000000040040DE
S1130320590300007903000011040000490400008F
S1130330C1060000001BB70004228240044B05489C
S11303405B6818401040431E9841C0B27047C046D5
S113035000180040FC0700004023054A51690B4384
S113036053610123034A137011781942FCD1704779
S1130370000400400018004070B54B7805000C786C
S1130380002B02D08023DB001C434B7A002B02D0CD
S113039080231B011C434A68012A13D9531E1340AE
S11303A00220002B07D0802312049B001A4314431D
S11303B008E0013340009042FBD3802252011443F1
S11303C01B041C430B7A002B02D080239B011C438B
S11303D028000B4EB0470028FAD10A4B98478021D9
S11303E0094BAA00D218136A49000B401C4314623B
S11303F02800B0470028FBD1044B984770BDC04685
S113040039030000150100000018004049010000F4
S113041010B504002000084B98470028FAD1074B78
S11304209847074BA400E4188023226A5B00134317
S11304302362044B984710BD3903000015010000E6
S11304400018004049010000F8B504002000124BD8
S113045098470028FAD1114F0834A400104B98474C
S1130460E059104B0007000F9847E659E459F60489
S11304700D4BF60F0500240C9847002E08D1012CD3
S113048004D928002100094B984705002800F8BD2D
S11304900134E540FAE7C046390300000018004083
S11304A0150100000902000049010000C106000016
S11304B010B50400064B98472034064BA400E458BA
S11304C0054B2407240F98472000044B984710BD80
S11304D01501000000180040490100004904000013
S11304E0D37830B5002B35D11478802C03D08023F9
S11304F024065B02234302255478AC4306D1947846
S1130500002C24D18024A402234341605478013C6C
S1130510012C01D8124C2340A0248DB2E4052C43B5
S11305201C438462D0240D0C24062C431C43846297
S1130530D478002C0AD15B0303D59378012B0CD11A
S113054081615378013B012B00D8816030BDC02408
S1130550E402D9E741600023DEE74161F1E7C046E8
S1130560FFFFFBFF10B503000A004409C109002086
S1130570814202D10449E00140181F210B401E3979
S11305809940024B984710BD00280040E104000048
S11305907047000010B5054B9847054B9847054B2D
S11305A09847054B9847054B984710BD95020000A6
S11305B079010000910500009105000091050000FB
S11305C0FEE700001148124970B5884204D00023A8
S11305D0104CCA18A24213D300210F4B0F4A934266
S11305E012D3FF210E4B0F4A8B43936080230E4A94
S11305F051680B4353600D4B98470D4B9847FEE7EA
S1130600C55804331560E4E702C3E8E74008000076
S1130610000000200400002004000020400000200E
S11306200000000000ED00E000400041D907000098
S1130630450600008022024BD2001A607047C04673
S11306409C28004007B5124B9847124B002098474E
S1130650114B013898420DD8C021104A0906506048
S11306600F48036A1B021B0A0B43036200239360B7
S1130670073313600123002201A94B700B702A2059
S1130680084B8A7098478022074BD2001A60FEE715
S11306909505000049040000FFFFFF0010E000E0A2
S11306A000ED00E0AD0100009828004002B471465E
S11306B049084900095C49008E4402BC7047C046A1
S11306C0002243088B4274D303098B425FD3030A8D
S11306D08B4244D3030B8B4228D3030C8B420DD3A0
S11306E0FF22090212BA030C8B4202D3121209022E
S11306F065D0030B8B4219D300E0090AC30B8B426C
S113070001D3CB03C01A5241830B8B4201D38B0319
S1130710C01A5241430B8B4201D34B03C01A5241BE
S1130720030B8B4201D30B03C01A5241C30A8B4201
S113073001D3CB02C01A5241830A8B4201D38B02EC
S1130740C01A5241430A8B4201D34B02C01A524190
S1130750030A8B4201D30B02C01A5241CDD2C30902
S11307608B4201D3CB01C01A524183098B4201D37E
S11307708B01C01A524143098B4201D34B01C01A69
S1130780524103098B4201D30B01C01A5241C308E1
S11307908B4201D3CB00C01A524183088B4201D350
S11307A08B00C01A524143088B4201D34B00C01A3C
S11307B05241411A00D20146524110467047FFE7A8
S11307C001B5002000F006F802BDC0460029F7D0AC
S11307D076E770477047C04670B500260C4D0D4C47
S11307E0641BA410A64209D1002600F019F80A4D92
S11307F00A4C641BA410A64205D170BDB300EB588B
S113080098470136EEE7B300EB5898470136F2E714
S11308102C0800002C0800002C0800003008000000
S1130820F8B5C046F8BC08BC9E467047DD00000021
S1130830F8B5C046F8BC08BC9E467047B500000039
S107084001000000AF
S90305C532
