:10000000E8100020DD0E0000D90E0000D90E00001F
:1000100000000000000000000000000000000000E0
:10002000000000000000000000000000D90E0000E9
:100030000000000000000000D90E0000D90E0000F2
:10004000D90E0000D90E0000D90E0000D90E000014
:10005000D90E0000D90E0000D90E0000D90E000004
:10006000650400007504000085040000950400008C
:10007000A5040000B5040000D90E0000D90E000050
:10008000D90E0000D90E0000D90E0000D90E0000D4
:10009000D90E0000D90E0000D90E0000D90E0000C4
:1000A000D90E0000D90E0000D90E0000D90E0000B4
:1000B0000000000010B5064C2378002B07D1054B3B
:1000C000002B02D0044800E000BF0123237010BDC4
:1000D000200000200000000090120000084B10B526
:1000E000002B03D00749084800E000BF0748036819
:1000F000002B00D110BD064B002BFBD09847F9E731
:100100000000000024000020901200009012000067
:100110000000000070B5094B00209847FA21084CF8
:1001200089000500A047074B074918602800A04731
:100130000522064B1860064B1A6070BDDD0C0000EE
:10014000E91000000000002040420F0004000020E1
:1001500010E000E030B580240021074B64021A68EB
:10016000064B013800D230BD002AFAD05A6099609F
:100170001D682542FCD0F4E70000002010E000E0FC
:1001800070470000094B196800290BD1EFF310806C
:10019000074A002805D172B6BFF35F8F0549087082
:1001A000012111701A6801321A6070473C0000206A
:1001B0004000002008000020084B1A68013A1A602D
:1001C0001B68002B09D1064B1B78002B05D00122A0
:1001D000044B1A70BFF35F8F62B670473C0000207B
:1001E000400000200800002007B5802201AB1A70F3
:1001F0000A785A704A789A708A781900DA70014B36
:10020000984707BD7D0E000010B549080400002383
:100210004020A14201D210BD0300581C091B80B22E
:100220008C42F9D94020FF2BF5D813800020F2E74B
:1002300037B50D4C05002378002B01D000290CD0D8
:1002400001A91120094B0D7098471120084B9847C0
:1002500001230020657023703EBD63780800AB4227
:10026000FAD01D20F8E7C04641000020A50D00008F
:10027000450D0000394A030000B50800934234D010
:1002800008D88422D205934214D0354A93421FD015
:10029000002317E0334A93423AD0334A934244D082
:1002A000324A9342F4D1002303290BD800F012FF05
:1002B000502A2C2E0023032904D800F00BFF430200
:1002C00005072B4B180000BD2A4BFBE72A4BF9E72B
:1002D00000230329F6D800F0FDFE37020406274B61
:1002E000F0E7274BEEE7274BECE700230329E9D89B
:1002F00000F0F0FE2C020406234BE3E7234BE1E77A
:10030000234BDFE7234BDDE7234BDBE7234BD9E729
:1003100000230329D6D800F0DDFE1D020406204B81
:10032000D0E7204BCEE7204BCCE700230329C9D8E8
:1003300000F0D0FE120204061C4BC3E71C4BC1E7C1
:100340001C4BBFE71C4BBDE70323BBE71B4BB9E7C7
:100350001B4BB7E71B4BB5E71B4BB3E7000800424D
:10036000000400420010004200040043000C004260
:10037000030005000300060003000700030001005E
:1003800003001E0003001F000300090003000A0011
:1003900003000B0003001100030012000300130010
:1003A00003000D0003000E0003000F000300170000
:1003B00003001800030019000300040003000800F4
:1003C0000300100003000C000300160070B586B097
:1003D0006946094B6A4670CB70C170CB70C100236F
:1003E00099005158814202D1D8B206B070BD013394
:1003F000062BF5D10020F8E75812000070470000E6
:10040000F0B5094C094A2378002B09D11E00084F8A
:10041000084DD750EE500433182BFAD1173B2370F8
:1004200080001150F0BDC046430000204400002071
:10043000FD0300008C00002007B508236A461370F6
:1004400001335370013393700133D370013313714F
:1004500001335371024B98476B4618560EBDC04688
:10046000CD03000010B5024B00201B68984710BD5B
:100470004400002010B5024B01205B68984710BD76
:100480004400002010B5024B02209B68984710BD25
:100490004400002010B5024B0320DB68984710BDD4
:1004A0004400002010B5024B04201B69984710BD82
:1004B0004400002010B5024B05205B69984710BD31
:1004C00044000020002210B54309C409944202D11F
:1004D000DA01064BD2181F2318401E3B8340002927
:1004E00001D0936110BD5361FCE7C0460028004075
:1004F0000368187E0123184070470368187E400780
:10050000C00F704770B5064B0C000568984705236F
:10051000002803D00023E405E40DAC62180070BD90
:10052000F104000070B50D4B06000C0005689847FB
:10053000102200280DD00423698B0022194201D01B
:100540006B831E32B379012B05D1AB6ADB05DB0D62
:100550002380100070BDAB6ADBB2F9E7FB0400003A
:10056000F0B5050029600E0014000A68022187B06A
:100570001C230A4200D0D3E001273268173B3A42DD
:1005800000D0CDE06E4B300098476E4B052800D16F
:10059000C9E087400200D96912320F43DF61694622
:1005A000631DDB7FD7B20B703800674B984738006C
:1005B000664B9847631DD87F0021654B9847237889
:1005C000012B03D132680B33134333602378002BA4
:1005D00003D132680833134333602B002A0000260E
:1005E0000C33283240C39A42FCD12B003633AE86FE
:1005F000EE622E86AE621E705E709E7003232868C7
:100600006B724F4B2E7198470700524B52499847D7
:10061000524BBF006A46FD50802313710123937132
:1006200023782F685671D671002B00D19671002661
:10063000A36A0293E36A0393236B0493636B0593AA
:10064000B30002AA9858F1B2002802D13800444BF6
:100650009847431C06D06B461871000CC0B201A924
:10066000404B98470136042EEAD123786B71237CE6
:10067000AB71A37CEB71237D2B726B469E1C002318
:1006800033802378012B10D12D4B286898471230E6
:10069000354BC0B29847354B01003200A0699847EE
:1006A000172300283CD133783B732378002B43D1A8
:1006B000E17FA57F7B6A090429431943A069A28BC6
:1006C000631C7962DB7F002B33D11300A168626861
:1006D0000A43E1680A43217C02430B43617C002901
:1006E00003D123498978890701D580210A43A17C58
:1006F000002902D0802189020B43E17C002902D02D
:10070000802189000B43217D002902D080218901AD
:100710000B4339680A433A607A6813437B600023CD
:10072000180007B0F0BD02211A6A0A431A621822A3
:1007300035E740231343C9E700231800C6E7C04646
:10074000CD03000000040040A50D0000450D000091
:100750003102000001040000650800008C00002048
:10076000750200007D0E0000C90D000009020000A6
:1007700000200041F0B5437985B005000E0014005B
:1007800000931520012B04D12B7A0193002B02D06A
:10079000002005B0F0BD184F002A27D04C78002C5F
:1007A00020D0164B2800984703003078002B03D147
:1007B0000099B8470520ECE70199B847104BB1788C
:1007C00028009847EB79002BE2D128000D4B984781
:1007D0000028FAD0002402AB991D28000A4B0C8097
:1007E0009847D5E708782100B847D1E708780099FD
:1007F000B8472000CDE7C046C5040000F104000062
:1008000005050000FB04000025050000931C9B006B
:10081000C3185960012393401A00363003781343FC
:100820000370704770B51724002B18D0C5790534B4
:10083000002D14D0050038352E78173CA6420ED076
:10084000826202228386C16203862C700368427230
:100850009C7500244179A14201D11A769A75200035
:1008600070BD0000F8B57C4B8000C4582300220006
:100870003733363225681B7816781E402B7EAF7DC5
:100880001F40FB0739D562791300012A33D1637AFF
:10089000002B0DD1714B1B88AB62638E013B9BB269
:1008A0006386638E002B00D12A756379012B22D1D8
:1008B000637A002B21D0E16A2268481C0B78E06241
:1008C000A079DBB2012800D174E09BB2DB05DB0D1F
:1008D0009362A38E013B9BB2A386A38E002B0CD107
:1008E00001332B75637A012B07D1E379002B04D1F7
:1008F0000233AB7501E0002BDAD004210F4215D092
:100900006B8B0B425CD0637A012B0CD023001E2230
:1009100038331A700323637202332B75330702D501
:100920002000A3699847AB6A04236B830222174215
:1009300027D06379002B0ED1072129752A76013241
:10094000627222003832A38623861370F30602D522
:100950002000E36998476379012B12D1637ADBB2F7
:10096000012B0ED1E279002A0BD102212975013128
:100970006172210038310A701E4202D02000E36803
:10098000984708231F4209D06279002A06D12B75A7
:100990002B76B30602D52000236A98477FB2002F3A
:1009A00007DA80232B752B76730602D5636A200045
:1009B0009847F8BD4878023100020343E16285E7B9
:1009C000627A2368D2B29B6A012A13D1638E013BFB
:1009D0009BB26386638E9BB2002BA7D12975210041
:1009E00038310B700333637216429FD02000E368E6
:1009F00098479BE7DB05A16ADB0DDAB20A70A26AB1
:100A0000511CA162A179012904D11B0A5370A36A68
:100A10000133A362238E013B9BB22386238E9BB2BC
:100A2000002B00D082E722003832137004332B757C
:100A3000627A022A05D11E4200D177E7200063695D
:100A4000D6E7637A002B00D070E7B30700D46DE7D8
:100A500020002369CCE7C0468C000020A4000020C1
:100A6000802303495B00CA681A42FCD07047C04625
:100A7000000C00408023DB059A78824202D10021DD
:100A8000080070479A78172152B2002AF8DB012239
:100A90009A7198709A79002AFCD0F0E770B508280E
:100AA00006D800F017FB0805052E2E130B1626009E
:100AB0000024200070BD154B1C69FAE7144B1C7D07
:100AC0002407A40F601C134C4443F2E70F4B5C69EE
:100AD000EFE70E4D00242B689B07EAD50E4B984795
:100AE0002B685B0710D520000C4B9847AC68A4B26C
:100AF000EAE70B4B00241B789B07DAD5034BDC6835
:100B0000D7E780242402D4E7064CD2E75C0000201B
:100B1000000C004000093D00610A0000C90D000002
:100B2000280C0040006CDC027FB5802303221E21CC
:100B30001B4C5B00A3601B4B02209A601A4A1B4DA2
:100B400053681B4E8B435360A8478023227D5B4232
:100B5000134340222375237D93432375154B9847F8
:100B60000123002401A9B371737133714B60053304
:100B70000B702000104B4C700C724C729847200088
:100B80000E4B98470E4B2000984731790D4BC9B258
:100B900098470D4B984201D82000A8477FBDC0461A
:100BA000000C00400014004000400041750A0000A5
:100BB00000040040ED0B00000D0C0000A50C00002F
:100BC000DD0C0000E9100000001BB7000422824089
:100BD000044B05485B6818401040431E9841C0B262
:100BE0007047C04600180040FC0700004023054A3B
:100BF00051690B4353610123034A13701178194261
:100C0000FCD17047000400400018004070B54B78DC
:100C100005000C78002B02D08023DB001C434B7AAC
:100C2000002B02D080231B011C434A68012A13D9E0
:100C3000531E13400220002B07D0802312049B0078
:100C40001A43144308E0013340009042FBD3802252
:100C5000520114431B041C430B7A002B02D0802347
:100C60009B011C4328000B4EB0470028FAD10A4BC9
:100C700098478021094BAA00D218136A49000B40FB
:100C80001C4314622800B0470028FBD1044B98474E
:100C900070BDC046CD0B000085010000001800406B
:100CA000B901000010B504002000084B9847002847
:100CB000FAD1074B9847074BA400E4188023226A17
:100CC0005B0013432362044B984710BDCD0B00001B
:100CD0008501000000180040B9010000F8B50400CB
:100CE0002000124B98470028FAD1114F0834A40075
:100CF000104B9847E059104B0007000F9847E659F2
:100D0000E459F6040D4BF60F0500240C9847002E0D
:100D100008D1012C04D928002100094B984705006F
:100D20002800F8BD0134E540FAE7C046CD0B0000CD
:100D300000180040850100009D0A0000B901000074
:100D4000E910000010B50400074B9847074BA000BE
:100D5000C11840230800CA6F1A43CA67C26F1A42FB
:100D6000FCD0034B984710BD8501000004180040DB
:100D7000B901000010B50400074B9847074BA000CD
:100D8000C11840230800CA6F9A43CA67C26F1A424B
:100D9000FCD1034B984710BD8501000004180040AA
:100DA000B901000070B50D00054B040098470F22F3
:100DB0002B7820341340034AA400A35070BDC046D2
:100DC000750D00000018004010B50400064B984750
:100DD0002034064BA400E458054B2407240F984701
:100DE0002000044B984710BD85010000001800400A
:100DF000B9010000DD0C0000D37830B5002B35D1EF
:100E00001478802C03D0802324065B022343022520
:100E10005478AC4306D19478002C24D18024A402C9
:100E2000234341605478013C012C01D8124C2340EB
:100E3000A0248DB2E4052C431C438462D0240D0C05
:100E400024062C431C438462D478002C0AD15B0313
:100E500003D59378012B0CD181615378013B012B91
:100E600000D8816030BDC024E402D9E7416000238E
:100E7000DEE74161F1E7C046FFFFFBFF10B503006D
:100E80000A004409C1090020814202D10449E0015D
:100E900040181F210B401E399940024B984710BD46
:100EA00000280040F90D00007047000010B5054B08
:100EB0009847054B9847054B9847054B9847054B76
:100EC000984710BD290B000081010000A90E000009
:100ED000A90E0000A90E0000FEE70000114812490B
:100EE00070B5884204D00023104CCA18A24213D314
:100EF00000210F4B0F4A934212D3FF210E4B0F4A92
:100F00008B43936080230E4A51680B4353600D4B13
:100F100098470D4B9847FEE7C55804331560E4E742
:100F200002C3E8E79012000000000020200000202B
:100F300020000020E80000200000000000ED00E09C
:100F40000040004101120000591000000122014B35
:100F50001A70704788000020F0B58FB06B460025EE
:100F600001241620264E5C709D701C706946254B2E
:100F700030707570B570984732785309D109A9421D
:100F80003CD11F2720003A40904002001E48DB0160
:100F90001B189A616B46197459749C74DC7419752A
:100FA0001C700533D9770C22184B06A801910291C9
:100FB0009847174B174E069384239B0303930123F3
:100FC0005B420A930B93144B6A460C93134B1449E0
:100FD0000D933000134B98473568134B2800984702
:100FE0000740BC40114B1C603268D369002BFCD118
:100FF0002A68023313432B600FB0F0BDAD61FFDEF2
:10100000E4000020E901000000280040491200002F
:10101000A0860100A80000200200180002001900AC
:10102000000C0042610500003904000000E100E00E
:1010300010B5064C022220000549064B98470423B0
:10104000373422781343237010BDC046A800002017
:101050004D0F00000D080000F8B5124B9847124BD9
:101060009847124B9847124B98470127114C124E44
:101070003A003100114B200098471423104A1149BF
:101080002000114DA847114B1A78002AFCD00022ED
:1010900031001A702000094B984738000C4B9847D4
:1010A000E4E7C046AD0E000015010000590F000036
:1010B00031100000A8000020E400002075070000A7
:1010C000740000200900002025080000880000208E
:1010D0005501000002B4714649084900095C490005
:1010E0008E4402BC7047C046002243088B4274D332
:1010F00003098B425FD3030A8B4244D3030B8B4219
:1011000028D3030C8B420DD3FF22090212BA030C21
:101110008B4202D31212090265D0030B8B4219D302
:1011200000E0090AC30B8B4201D3CB03C01A524122
:10113000830B8B4201D38B03C01A5241430B8B426A
:1011400001D34B03C01A5241030B8B4201D30B0353
:10115000C01A5241C30A8B4201D3CB02C01A52417A
:10116000830A8B4201D38B02C01A5241430A8B423D
:1011700001D34B02C01A5241030A8B4201D30B0226
:10118000C01A5241CDD2C3098B4201D3CB01C01A40
:10119000524183098B4201D38B01C01A524143094A
:1011A0008B4201D34B01C01A524103098B4201D338
:1011B0000B01C01A5241C3088B4201D3CB00C01AA5
:1011C000524183088B4201D38B00C01A524143081D
:1011D0008B4201D34B00C01A5241411A00D2014642
:1011E000524110467047FFE701B5002000F006F8B5
:1011F00002BDC0460029F7D076E770477047C04669
:1012000070B500260C4D0D4C641BA410A64209D1EC
:10121000002600F02DF80A4D0A4C641BA410A642CB
:1012200005D170BDB300EB5898470136EEE7B30027
:10123000EB5898470136F2E77C1200007C12000060
:101240007C1200008012000003008218934200D13B
:10125000704719700133F9E70000004200040042B2
:1012600000080042000C004200100042000400434D
:10127000F8B5C046F8BC08BC9E467047DD000000CB
:10128000F8B5C046F8BC08BC9E467047B5000000E3
:10129000401F0000080000000100010203040506D1
:1012A0000708090A0B0C0D0E0F1011121300000095
:0400000300000EDD0E
:00000001FF
