:10000000D81000205D0500005905000059050000CA
:1000100000000000000000000000000000000000E0
:100020000000000000000000000000005905000072
:100030000000000000000000590500005905000004
:100040005905000059050000590500005905000038
:100050005905000059050000590500005905000028
:100060005905000059050000590500005905000018
:100070005905000059050000590500005905000008
:1000800059050000590500005905000059050000F8
:1000900059050000590500005905000059050000E8
:1000A00059050000590500005905000059050000D8
:1000B0000000000010B5064C2378002B07D1054B3B
:1000C000002B02D0044800E000BF0123237010BDC4
:1000D0007000002000000000500D0000084B10B51B
:1000E000002B03D00749084800E000BF0748036819
:1000F000002B00D110BD064B002BFBD09847F9E731
:100100000000000074000020500D0000500D0000A1
:100110000000000070B5094B00209847FA21084CF8
:1001200089000500A047074B074918602800A04731
:100130000522064B1860064B1A6070BD9104000042
:10014000F50800000000002040420F0004000020DD
:1001500010E000E030B580240021074B64021A68EB
:10016000064B013800D230BD002AFAD05A6099609F
:100170001D682542FCD0F4E70400002010E000E0F8
:1001800030B580240021074B64021A68064B013801
:1001900000D230BD002AFAD05A6099601D6825420D
:1001A000FCD0F4E70000002010E000E07047000001
:1001B000094B196800290BD1EFF31080074A00287A
:1001C00005D172B6BFF35F8F054908700121117028
:1001D0001A6801321A6070478C00002090000020DD
:1001E00008000020084B1A68013A1A601B68002BAF
:1001F00009D1064B1B78002B05D00122044B1A7045
:10020000BFF35F8F62B670478C0000209000002023
:1002100008000020802303495B00CA681A42FCD012
:100220007047C046000C00408023DB059A7882426C
:1002300002D10021080070479A78172152B2002A93
:10024000F8DB01229A7198709A79002AFCD0F0E7C5
:1002500070B5082806D800F043FB0805052E2E13BC
:100260000B1626000024200070BD154B1C69FAE710
:10027000144B1C7D2407A40F601C134C4443F2E76D
:100280000F4B5C69EFE70E4D00242B689B07EAD506
:100290000E4B98472B685B0710D520000C4B9847F6
:1002A000AC68A4B2EAE70B4B00241B789B07DAD5B5
:1002B000034BDC68D7E780242402D4E7064CD2E75E
:1002C00094000020000C004000093D0015020000D1
:1002D000F9040000280C0040006CDC027FB580238C
:1002E00003221E211B4C5B00A3601B4B02209A6063
:1002F0001A4A1B4D53681B4E8B435360A8478023FB
:10030000227D5B42134340222375237D9343237553
:10031000154B98470123002401A9B3717371337100
:100320004B6005330B702000104B4C700C724C72FC
:10033000984720000E4B98470E4B20009847317984
:100340000D4BC9B298470D4B984201D82000A847E1
:100350007FBDC046000C004000140040004000413A
:100360002902000000040040A1030000C1030000B6
:100370005904000091040000F5080000001BB700BC
:1003800004228240044B05485B6818401040431E1D
:100390009841C0B27047C04600180040FC070000FA
:1003A0004023054A51690B4353610123034A1370EB
:1003B00011781942FCD17047000400400018004039
:1003C00070B54B7805000C78002B02D08023DB0041
:1003D0001C434B7A002B02D080231B011C434A682C
:1003E000012A13D9531E13400220002B07D080236B
:1003F00012049B001A43144308E00133400090426A
:10040000FBD38022520114431B041C430B7A002BA4
:1004100002D080239B011C4328000B4EB0470028CC
:10042000FAD10A4B98478021094BAA00D218136AC7
:1004300049000B401C4314622800B0470028FBD140
:10044000044B984770BDC04681030000B101000015
:1004500000180040E501000010B504002000084B22
:1004600098470028FAD1074B9847074BA400E41897
:100470008023226A5B0013432362044B984710BD1C
:1004800081030000B101000000180040E5010000F8
:10049000F8B504002000124B98470028FAD1114FFC
:1004A0000834A400104B9847E059104B0007000F88
:1004B0009847E659E459F6040D4BF60F0500240C55
:1004C0009847002E08D1012C04D928002100094B9F
:1004D000984705002800F8BD0134E540FAE7C0461A
:1004E0008103000000180040B1010000510200002B
:1004F000E5010000F508000010B50400064B984720
:100500002034064BA400E458054B2407240F9847D9
:100510002000044B984710BDB101000000180040B6
:10052000E5010000910400007047000010B5054B84
:100530009847054B9847054B9847054B9847054BFF
:10054000984710BDDD020000AD0100002905000044
:100550002905000029050000FEE7000011481249A6
:1005600070B5884204D00023104CCA18A24213D39D
:1005700000210F4B0F4A934212D3FF210E4B0F4A1B
:100580008B43936080230E4A51680B4353600D4B9D
:1005900098470D4B9847FEE7C55804331560E4E7CC
:1005A00002C3E8E7500D00000000002070000020AA
:1005B00070000020D40000200000000000ED00E0EA
:1005C00000400041E10B00003D080000054B020027
:1005D0001968002901D104491960186882181A6045
:1005E0007047C046AC000020D810002043091F22ED
:1005F000DB01002906D010401E3A824005495B18F5
:100600009A61704710400122824002495B185A618A
:10061000F7E7C04600280040F7B508240190164EC1
:100620000021B068154DA847154B164F18780028C3
:100630001DD0B8476B461B7901215BB2002B00DB54
:1006400000217068A847B0680121A847019B5B00A2
:10065000DBB201930A4B187800280AD0013CE4B2BF
:10066000B847002CDBD1B0682100A847F7BD0120B6
:10067000DFE70120F2E7C046B8000020ED050000EA
:100680000900002055010000F7B50824012701905A
:10069000144E0021B068144DA847144B1878002858
:1006A0001BD0134B98470199394000D0390070682E
:1006B000A847B0683900A847019B5B0801930B4B22
:1006C000187800280BD0013C094BE4B29847002C65
:1006D000DED1B0682100A847F7BD3800E1E7380057
:1006E000F1E7C046B8000020ED0500000900002039
:1006F0005501000070B5002604AC2578094C268011
:10070000094C2060280058432373C010074B6573C1
:10071000A673A260616098472061431E9841C0B2F1
:1007200070BDC046CC000020B8000020290C00009D
:1007300070B51A4D2B7B83421BD96C7B8C4218D928
:10074000AE7B022E16D0032E1BD0012E03D15C1ED1
:10075000641A0100E0B24B4329691B18DB10CB1867
:10076000002A13D0072210400D4A1978125C0A4360
:100770001A7070BD5E1E013C301A611AC0B2C9B257
:10078000E9E7013C241A0800E1B2E4E7072210403F
:10079000044A115C1A780A40EAE7C046B800002013
:1007A000280D0000200D0000F7B51E4D01212A7B09
:1007B0006B7B28685343DB0801931B4B98478020D1
:1007C0001A4B40421B8800261843C0B2184B98476A
:1007D000184B0120984701230093019AB3B29A4223
:1007E00007D80020134B9847286800210E4B9847E4
:1007F000F7BD2B690F4F985DB847297B01360E4B2B
:10080000C90830009847009B013084B2A34206D04B
:100810000020B8476B7BA34201D3E0B2B8470094F5
:10082000DBE7C046B8000020ED050000CC0000204A
:100830001906000089060000090A000073B51E4B66
:1008400098471E4B9847A823182200931721183B5E
:100850001B4C1620A047802002221A4B1A4CC003C2
:1008600098602178194D11432170802424049C60E4
:100870002978114329708021154D490499602E78FB
:1008800032432A70002558615C61596100242A1B9B
:1008900053425A41E0B2D2B2E9B20E4B013498470A
:1008A000902CF4D10135A82DF0D10B4B9847642042
:1008B0000A4B9847F9E7C0462D05000015010000D6
:1008C000F506000000280040562800405728004048
:1008D0005828004031070000A907000081010000EE
:1008E00002B4714649084900095C49008E4402BCC3
:1008F0007047C046002243088B4274D303098B42E1
:100900005FD3030A8B4244D3030B8B4228D3030CDF
:100910008B420DD3FF22090212BA030C8B4202D381
:100920001212090265D0030B8B4219D300E0090AA9
:10093000C30B8B4201D3CB03C01A5241830B8B42B2
:1009400001D38B03C01A5241430B8B4201D34B039B
:10095000C01A5241030B8B4201D30B03C01A524100
:10096000C30A8B4201D3CB02C01A5241830A8B4285
:1009700001D38B02C01A5241430A8B4201D34B026E
:10098000C01A5241030A8B4201D30B02C01A5241D2
:10099000CDD2C3098B4201D3CB01C01A5241830986
:1009A0008B4201D38B01C01A524143098B4201D3C0
:1009B0004B01C01A524103098B4201D30B01C01AEB
:1009C0005241C3088B4201D3CB00C01A5241830865
:1009D0008B4201D38B00C01A524143088B4201D392
:1009E0004B00C01A5241411A00D2014652411046F2
:1009F0007047FFE701B5002000F0F0F802BDC046E7
:100A00000029F7D076E7704703460B437FD40022D6
:100A100043088B4274D303098B425FD3030A8B4292
:100A200044D3030B8B4228D3030C8B420DD3FF22FC
:100A3000090212BA030C8B4202D31212090265D0CA
:100A4000030B8B4219D300E0090AC30B8B4201D37D
:100A5000CB03C01A5241830B8B4201D38B03C01AC4
:100A60005241430B8B4201D34B03C01A5241030B3B
:100A70008B4201D30B03C01A5241C30A8B4201D3EC
:100A8000CB02C01A5241830A8B4201D38B02C01A97
:100A90005241430A8B4201D34B02C01A5241030A0E
:100AA0008B4201D30B02C01A5241CDD2C3098B42F3
:100AB00001D3CB01C01A524183098B4201D38B0170
:100AC000C01A524143098B4201D34B01C01A524113
:100AD00003098B4201D30B01C01A5241C3088B4258
:100AE00001D3CB00C01A524183088B4201D38B0043
:100AF000C01A524143088B4201D34B00C01A5241E5
:100B0000411A00D201465241104670475DE0CA0FBB
:100B100000D04942031000D34042534000229C467B
:100B200003098B422DD3030A8B4212D3FC22890185
:100B300012BA030A8B420CD3890192118B4208D35B
:100B4000890192118B4204D389013AD0921100E0BD
:100B50008909C3098B4201D3CB01C01A52418309D1
:100B60008B4201D38B01C01A524143098B4201D3FE
:100B70004B01C01A524103098B4201D30B01C01A29
:100B80005241C3088B4201D3CB00C01A52418308A3
:100B90008B4201D38B00C01A5241D9D243088B42F9
:100BA00001D34B00C01A5241411A00D2014663469C
:100BB00052415B10104601D34042002B00D5494200
:100BC000704763465B1000D3404201B5002000F03F
:100BD00005F802BD0029F8D016E770477047C046F7
:100BE00070B500260C4D0D4C641BA410A64209D113
:100BF000002600F09DF80A4D0A4C641BA410A64282
:100C000005D170BDB300EB5898470136EEE7B3004D
:100C1000EB5898470136F2E73C0D00003C0D000010
:100C20003C0D0000400D000010B5034B010018689A
:100C300000F004F810BDC0460C000020032370B57E
:100C4000CD1C9D43083506000C2D1ED20C25A94253
:100C50001DD8300000F062F8254A146821000029F0
:100C600019D1244C2368002B03D1300000F044F844
:100C700020602900300000F03FF8431C2CD10C23E9
:100C80003000336000F04BF803E0002DDFDA0C2376
:100C90003360002070BD0B685B1B1AD40B2B03D98B
:100CA0000B60CC18256003E08C420ED163681360A2
:100CB000300000F034F8200007220B30231D904351
:100CC000C31AE7D05A42E250E4E74B6863600C0075
:100CD000EEE70C004968C2E70323C41C9C43A04212
:100CE000E0D0211A300000F007F8431CDAD1C6E743
:100CF000B0000020B4000020002370B5064C0500B1
:100D000008002360FFF762FC431C03D12368002B1B
:100D100000D02B6070BDC046D000002070477047E7
:100D2000FEFDFBF7EFDFBF7F0102040810204080CB
:100D3000F8B5C046F8BC08BC9E467047DD00000010
:100D4000F8B5C046F8BC08BC9E467047B500000028
:100D5000401F0000080000000114000010000020E7
:100D60000000000000000000000000000000000083
:100D70000000000000000000000000000000000073
:100D80000000000000000000000000000000000063
:100D90000000000000000000000000000000000053
:100DA0000000000000000000000000000000000043
:100DB0000000000000000000000000000000000033
:040000030000055D97
:00000001FF
