S0210000534C45455057414C4B494E475F414443315F4558414D504C452E73726563BA
S11300009020002095100000911000009110000035
S113001000000000000000000000000000000000DC
S1130020000000000000000000000000911000002B
S1130030000000000000000091100000911000007A
S11300409110000091100000911000009110000028
S11300509110000091100000911000002D07000085
S11300609110000091100000911000009110000008
S113007091100000911000009110000091100000F8
S113008091100000911000009110000091100000E8
S1130090911000009110000059060000911000001A
S11300A091100000911000009110000091100000C8
S11300B00000000010B5064C2378002B07D1054B37
S11300C0002B02D0044800E000BF0123237010BDC0
S11300D02000002000000000F4150000084B10B5BB
S11300E0002B03D00749084800E000BF0748036815
S11300F0002B00D110BD064B002BFBD09847F9E72D
S11301000000000024000020F4150000F415000095
S11301100000000070B50020084B98470500084C0B
S1130120FA218900A047074B186007492800A04717
S1130130064B18600522064B1A6070BD590E00006C
S1130140E51200000000002040420F0004000020DF
S113015010E000E030B5084B1C68084A00258021F7
S11301604902013807D3002CFBD054609560136812
S11301700B42FCD0F5E730BD0000002010E000E0A9
S11301800C4B1B68002B06D1EFF31083002B07D018
S11301900022094B1A70074A136801331360704731
S11301A072B6BFF35F8F0022044B1A700132024B08
S11301B01A70F0E73C0000204000002008000020F6
S11301C0084B1A68013A1A601B68002B09D1064BC8
S11301D01B78002B05D00122044B1A70BFF35F8FEC
S11301E062B670473C000020400000200800002058
S11301F0F0B583B001AC012565700027A7702570A8
S113020021002A20064EB0478022D200054B9A6175
S11302102770657021000220B04703B0F0BDC046CE
S113022071080000802800400020704710B50023AA
S11302300022037043708370C37000210383036240
S1130240C36101240471C0246401C4800172427238
S11302508272C27202732A24025542738273C27379
S113026003610275063C0255C3840385417510BDC4
S1130270F0B5CE4600B59AB005000C001600080093
S1130280B24B98472C60B24A136A08210B4313629D
S113029022780523D20704D518001AB004BC91466D
S11302A0F0BD2A68138C9BB2002BFBD122781C333F
S11302B09207F1D473782B71002B04D1A54AD3692A
S11302C004210B43D3610023AB60EB602B61AB765D
S11302D0EB762B832B7780009F4BC5502A23F35C4E
S11302E0002B05D1337B002B02D101336B7701E066
S11302F000236B772F6833786A46137069461E2093
S1130300964B98471E20964B98473479602295491E
S113031002A8954B9847132C0BD9F4886022914975
S113032002A8914B9847132C11D900248E4B99465F
S11303301EE0A40002ABE05801A900234B70CB706F
S11303408B7001330B70C0B2884B9847E5E7A4006B
S113035002ABE05801A900234B70CB708B700133C2
S11303600B70C0B2814B9847DFE70134142C18D0CE
S11303700123A34032691A42F7D06022794902A8C6
S1130380C847132CF1D8A30002AA985801A9002346
S11303904B70CB708B7001330B70C0B2734B9847AA
S11303A0E3E7737B9B01B27BD2011343DBB23B7067
S11303B0337DDB0172781343DBB2BB70F378342BEB
S11303C000D940E19B006A4AD3589F46042210207A
S11303D002211AE0717A327A102016E006221020E7
S11303E0012112E00822102000210EE0002230201A
S11303F000210AE000222020002106E00022002043
S1130400002102E0022210200121090170230B4087
S113041013433B732A68138C9BB2002BFBD1727D70
S113042017333F2A00D937E7F37BDB011A43D2B2F3
S11304307A732A68138C9BB2002BFBD1B3787B7040
S11304402423F35CDB00327B92001A43F37A1343D8
S1130450B27A5200134303437B812A68138C9BB204
S1130460002BFBD1328B002A20D0102800D1C9E008
S113047000D883E0202800D1A3E0302816D1F37AF5
S1130480002B0AD0F16980311723FF2900D903E733
S1130490316A8031FF2900D9FEE61723F169FF296B
S11304A000DDF9E6316AFF2900DDF5E67B891A43B0
S11304B07A812A68138C9BB2002BFBD1B38BFB810E
S11304C02A68138C9BB2002BFBD1338C3B822A68A5
S11304D0138C9BB2002BFBD13379F28813433B81FD
S11304E02A68138C9BB2002BFBD12A33F35CFB707C
S11304F007233B711D33F35C002B1BD0F28C1D4989
S113050017238A4200D9C7E67A822A68138C9BB2E1
S1130510002BFBD1318D80231B01CA18154892B2E0
S11305201723824200D9B7E6B9822A68138C9BB29A
S1130530002BFBD1104B1B681A02E021C9000A40B2
S11305409B065B0F1343BB850023A5E6290200002D
S1130550000400400014004060000020350F00003B
S1130560C50E00002C1500004514000031100000D9
S113057058140000FF0F000020608000002895D16F
S1130580F37A002B12D0F36980200001844663447F
S113059019002E481723814200D97DE6336A63444B
S11305A019002A481723814200D975E627491723E1
S11305B0F069884200DD6FE6306A884200DD6BE650
S11305C074E7F37A002B12D0F3698020800084460C
S11305D0634419001E481723814200D95CE6336A3C
S11305E0634419001A481723814200D954E6184974
S11305F01723F069884200DD4EE6306A884200DD48
S11306004AE653E7F37A002B12D0F3698020000204
S11306108446634419000F481723814200D93BE6FE
S1130620336A634419000B481723814200D933E627
S113063008491723F069884200DD2DE6306A8842B4
S113064000DD29E632E7172326E6C046FF0F000047
S1130650FF030000FFFF000070B52E4B1C682368E9
S11306609D79EDB2EA072DD5E27ED2072AD5A27E86
S1130670D20727D501229A716269931C63612368AA
S11306809B8C9BB21380238B013B9BB22383002B57
S113069015D0637F002B15D02268D3795BB2002B71
S11306A010DB138C9BB2002BFBD1137E02210B4376
S11306B013762268138C9BB2002BFBD102E0237FBC
S11306C0052B16D06B0708D5042322689371E37EAB
S11306D09B0702D5A37E9B0714D4AB0708D502233E
S11306E022689371E37E5B0702D5A37E5B070DD47A
S11306F070BD002323770133226813712000A3689F
S11307009847DFE72000E3689847E6E7236920007D
S11307109847EDE760000020931C9B0019500123CB
S113072093401A00837E13438376704710B50C4BB5
S11307301C698621C9058A69986802439A60094B35
S11307408B61002C05D0206863689847A468002C4E
S1130750F9D1034BD9689A688A439A6010BDC046A0
S11307600C000020FF0FFF0F06490B6A0122134300
S11307700B628623DB051A7019000B781342FCD137
S11307807047C046000400400123037000234370F7
S11307908370C370037143717047000070B582B0F9
S11307A005000E00254B9847254B1B68DA070ED52C
S11307B05B08012401221A420AD05B080134E4B226
S11307C00C2CF8D11F4B9847142002B070BD0024A4
S11307D01B4A11680123A3400B4313601379013BA7
S11307E01371184B98471420FF2CEED02C7073789B
S11307F0022B0AD001A9F3780B700534E4B220006F
S1130800114B98472000114B9847B2787F2313402F
S11308103279920313437279D2031343727812022A
S1130820C02189000A40134332789202C021090191
S11308300A4013436B600020C7E7C04681010000F3
S11308400C000020C1010000350F0000C50E00009F
S1130850027801321F2313408622D20520318900F9
S11308608B500378416808339B00995000207047EF
S113087000B583B001AB80221A700A785A704A78A6
S11308809A708A78DA701900014B984703B000BD5A
S11308903110000003681869431E9841C0B27047C4
S11308A070B504000668074D2000A8470028FBD156
S11308B03388022213433380024D2000A8470028C6
S11308C0FBD170BD9508000070B504000668094DA1
S11308D02000A8470028FBD1074B3381B38133881C
S11308E0022293433380034D2000A8470028FBD104
S11308F070BDC04695080000FF81FFFF70B504007D
S11309000668084B9847084D2000A8470028FBD1EB
S11309103388012213433380034D2000A847002865
S1130920FBD170BDC908000095080000F0B583B084
S11309300400019115000668134F2000B8470028F1
S1130940FBD12379002B0ED0012B19D11730012DA7
S113095017D80835AD00019BAB510B4D2000A847BB
S11309600028FBD10DE01720022D0AD8074B019A6D
S11309709A4206D86B469B8810356D00AB53ECE762
S11309801A2003B0F0BDC04695080000FFFF000028
S113099070B50400150001601F4A516980235B0093
S11309A00B43536101221D4B1A611D4B9847AB78D1
S11309B023711C4B1C6022682B79DB0329880B43B1
S11309C09BB21380AB78002B13D01720012B0FD1CF
S11309D013889BB21380EB78002B03D013888021FB
S11309E00B431380A968002220000F4B9847002076
S11309F070BD138804210B431380EB781720002B60
S1130A00F6D10022A9682000074EB047E968012208
S1130A102000B0470020EBE7000400400010004035
S1130A20FD080000640000202D09000010B508280E
S1130A3003D880001C4B1B589F46002032E01B4B00
S1130A4018692FE01A4B187D0007800F431C1948C2
S1130A50584327E0154B586924E0144B1B680020C9
S1130A609B071FD5124980225200CB681342FCD049
S1130A700E4B1B685B0701D40F4813E000200F4B9B
S1130A8098470A4B9B681B041B0C58430AE0282315
S1130A90074AD35C00209B0704D5044BD86801E0C7
S1130AA08020000210BDC0468C15000044000020C8
S1130AB0000C004000093D00006CDC02590F0000EE
S1130AC0F0B5CE46474680B5194B99469B694178A7
S1130AD08C4605780679C7784479807801210840E6
S1130AE0800004229343034360460840C00004325C
S1130AF0934303433800084080014027BB4303432A
S1130B0030000840C0018026B3430343072005405A
S1130B102D02084803402B432140090306480340A3
S1130B200B434A4693610CBC90469946F0BDC046BF
S1130B3000100040FFF8FFFFFFEFFFFF082803D875
S1130B4080002D4B1B589F46172054E02B4A137DE1
S1130B5002210B43137500204DE0294A93690221B9
S1130B600B439361002046E0244A138A02210B437D
S1130B70138200203FE0224A536902210B43536150
S1130B80002038E01F490B68022213430B601B4B03
S1130B901A831900FE32CB681342FCD0194B9A68B1
S1130BA0164B1A6202221A831900FE32CB681342D2
S1130BB0FCD0144B5A68114BDA6100221A831900D5
S1130BC00132FF32CB681342FCD00E4B1B689BB240
S1130BD00A4A138300200EE0084928228B5C022075
S1130BE003438B5408003821263A435C1342FCD15A
S1130BF0002000E000207047B0150000000C004009
S1130C000010004044000020F0B5D6464F4646464A
S1130C10C0B586B0802252003F4B9A60FD3A3F4BEC
S1130C209A603F4A53681E218B4353608023DB053F
S1130C309B78022B0FD08023DB059B785BB2002BC3
S1130C4009DB8023DB0501229A7101329A701A00B4
S1130C509379002BFCD004A801254570857005719B
S1130C600723037000264671C5702E4B9847042055
S1130C702D4B9847284B197D802252420A431A75FE
S1130C801A7D40210A431A75284B984701AC0295F6
S1130C90667006239A462370267266722100042029
S1130CA0234B994698470420224B98469847224F55
S1130CB0BD717D713D716560667053462370267207
S1130CC0667221000020C8470020C04700201B4B4B
S1130CD098473979C9B21A4B98471A4B984214D895
S1130CE08023DB059B78002B0FD08023DB059B78CA
S1130CF05BB2002B09DB8023DB0501229A71002201
S1130D009A701A009379002BFCD006B01CBC904654
S1130D109946A246F0BDC046000C004000140040B5
S1130D2000400041C10A00003D0B0000490D0000D5
S1130D306D0D0000190E000000040040590E000063
S1130D40E5120000001BB700064A536940210B431B
S1130D5053610122044B1A7019000B781342FCD121
S1130D607047C046000400400018004070B50400FD
S1130D700D784B78002B02D08023DB001D434B7A87
S1130D80002B02D080231B011D43486801280FD982
S1130D90431E184231D102282DD9022300220132E8
S1130DA05B009842FBD880235B011D43120415436A
S1130DB00B7A002B02D080239B011D430426A640FE
S1130DC01149124A4B6813401E42FBD1104B9847FD
S1130DD0A4000D4B9C466444226A80235B001A40A5
S1130DE02A4322626146094A4B6813401E42FBD1E2
S1130DF0084B984770BD0022D5E7000480239B0070
S1130E0018430543D4E7C04600180040FC0700001F
S1130E1081010000C101000010B5040004228240D9
S1130E2009480A4943680B401A42FBD1084B9847CA
S1130E30A400054B9C466444226A80235B00134350
S1130E402362044B984710BD00180040FC070000C3
S1130E5081010000C1010000F8B5040004228240B1
S1130E601248134943680B401A42FBD1114B98476F
S1130E700E4F0834A400E0590007000F0E4B9847AA
S1130E800600E559ED04ED0FE459240C0B4B98478B
S1130E90002D07D1012C07D921003000084B9847B9
S1130EA0060001E00134E6403000F8BD00180040BF
S1130EB0FC070000810100002D0A0000C1010000B0
S1130EC0E512000010B50400094B9847A000094B37
S1130ED09C4660448022835840210B438350403118
S1130EE0403A43581A42FCD0034B984710BDC046C1
S1130EF08101000000180040C101000010B5040089
S1130F00094B9847A000094B9C46604480228358B3
S1130F1040218B4383504031403A43581A42FCD11C
S1130F20034B984710BDC0468101000000180040E3
S1130F30C101000070B504000D00054B98472A78E4
S1130F400F2313402034A400024AA35070BDC046AE
S1130F50FD0E00000018004010B50400064B984731
S1130F602034A400054BE4582407240F044B98476D
S1130F702000044B984710BD810100000018004078
S1130F80C1010000590E000030B5D378002B35D1D3
S1130F901378802B29D01B068024640223435478C1
S1130FA00225AC4306D19478002C20D18024A402DD
S1130FB0234341605478013C012C1CD90D042D0CB1
S1130FC0A024E4052C431C4384620D0CD024240685
S1130FD02C431C438462D478002C22D15B031CD59F
S1130FE09378012B1ED0416117E00023D7E7C0247A
S1130FF0E4022343DDE70D4C2340DFE741600C04AA
S1131000240CA023DB05234383620C0CD0231B0692
S113101023438362D378002B03D15378013B012B04
S113102002D930BD8161F8E78160FAE7FFFFFBFF79
S113103010B50A00C1090023002904D14309DB01CA
S113104005498C4663441F24204001218140180037
S1131050024B984710BDC04600280040890F00008D
S11310607047000010B5054B9847054B9847054B52
S11310709847054B9847054B984710BD090C00004D
S1131080F101000069070000611000006110000018
S1131090FEE7000010B51A4A1A4B9A4211D01A0002
S11310A0194B9A420DD2194A03339B1A9B080133F8
S11310B09B000022134812498C58845004329A42EF
S11310C0FAD1134A134B9A420AD2D34311495B18FB
S11310D003218B4304339B18002102C29342FCD1A9
S11310E00D4AFF210D4B8B4393600D4A53687F39A2
S11310F00B4353600B4B98470B4B9847FEE7C04696
S1131100F41500000000002020000020040000204E
S1131110200000209000002000ED00E0000000000E
S113112000400041FD130000391100000122014B71
S11311301A7070475C000020F0B591B0554B984789
S1131140554B984703AA0123937013710021D16072
S11311500131FF311180D370FA2189009160694611
S11311604B704E4C4E4920004E4B984720686B46BE
S11311701B785A1E9341DA0380235B001343002239
S11311800125FF2402E00132082A09D01100694434
S1131190C9780029F7D02900914021400B43F2E798
S11311A04268134343603D483F4B984703AC2000DB
S11311B03E4B98470125A57002266670257165711E
S11311C021000EA83A4B98471F210EA8394B984787
S11311D02000394B984704232370A57000226270C5
S11311E02A32A65465730A32E27023726372FD33A5
S11311F0FF332383A57380231B0123622F4D220019
S11312002F4928002F4B98472B681A8C92B2002A3A
S1131210FBD18021C9032C4A116007221A719A71EB
S11312201A7802210A431A70244B1A68138C9BB251
S1131230002BFBD1214C012224492000244B984748
S1131240E37E02221343E3762268042353710121CF
S1131250204A1170BFF35F8F62B68022D2055370AB
S113126013005A78042AFCD10D328023DB051A813D
S1131270BFF34F8F30BF184B1A78002AFCD0174F9A
S11312808026F600FA256D00154CFE612800A04763
S1131290FBE7C0466510000015010000680000204F
S11312A00020004091090000A10800008907000007
S11312B09D070000510800002D020000700000206E
S11312C0000C00437102000000E100E02D11000059
S11312D019070000080000205C000020802800405E
S11312E055010000002243088B4274D303098B424A
S11312F05FD3030A8B4244D3030B8B4228D3030CE2
S11313008B420DD3FF22090212BA030C8B4202D383
S11313101212090265D0030B8B4219D300E0090AAB
S1131320C30B8B4201D3CB03C01A5241830B8B42B4
S113133001D38B03C01A5241430B8B4201D34B039D
S1131340C01A5241030B8B4201D30B03C01A524102
S1131350C30A8B4201D3CB02C01A5241830A8B4287
S113136001D38B02C01A5241430A8B4201D34B0270
S1131370C01A5241030A8B4201D30B02C01A5241D4
S1131380CDD2C3098B4201D3CB01C01A5241830988
S11313908B4201D38B01C01A524143098B4201D3C2
S11313A04B01C01A524103098B4201D30B01C01AED
S11313B05241C3088B4201D3CB00C01A5241830867
S11313C08B4201D38B00C01A524143088B4201D394
S11313D04B00C01A5241411A00D2014652411046F4
S11313E07047FFE701B5002000F006F802BDC046D3
S11313F00029F7D076E770477047C04670B50026DD
S11314000C4D0D4C641BA410A64209D1002600F01B
S1131410E1F80A4D0A4C641BA410A64205D170BD24
S1131420B300EB5898470136EEE7B300EB58984702
S11314300136F2E7E0150000E0150000E0150000B9
S1131440E4150000002310B59A4200D110BDCC5C15
S1131450C4540133F8E70000FC0300004606000012
S11314604606000046060000460600004606000048
S11314704606000046060000460600004606000038
S11314804606000046060000460600004606000028
S11314904606000046060000E4030000460600007D
S11314A04606000046060000460600004606000008
S11314B046060000460600004606000046060000F8
S11314C046060000460600004606000046060000E8
S11314D04606000046060000F4030000460600002D
S11314E046060000460600004606000046060000C8
S11314F046060000460600004606000046060000B8
S113150046060000460600004606000046060000A7
S11315104606000046060000EC0300000404000038
S1131520CC030000DC030000D40300000200000030
S1131530030000002800000029000000040000004F
S11315400500000006000000070000002000000065
S113155021000000220000002300000024000000FD
S113156025000000260000002700000008000000FD
S1131570090000000A0000000B000000FFFF00004B
S1131580FFFF0000FFFF0000FFFF00003E0A000015
S11315903A0A00003A0A0000A00A0000A00A00006B
S11315A0540A0000440A00005A0A00008E0A00008F
S11315B0680B0000480B0000480B0000F40B00000F
S11315C05A0B0000760B00004C0B0000840B00004B
S11315D0D80B0000F8B5C046F8BC08BC9E4670475E
S11315E0DD000000F8B5C046F8BC08BC9E46704754
S10715F0B50000003E
S11315F4401F00000800000001000000000000007B
S11316040C000000000000000000000000000000C6
S903109557
