:100000002010002025010000210100002101000036
:1000100000000000000000000000000000000000E0
:1000200000000000000000000000000021010000AE
:10003000000000000000000021010000210100007C
:100040002101000021010000210100002101000028
:100050002101000021010000210100002101000018
:100060002101000021010000210100002101000008
:1000700021010000210100002101000021010000F8
:1000800021010000210100002101000021010000E8
:1000900021010000210100002101000021010000D8
:1000A00021010000210100002101000021010000C8
:1000B0000000000010B5064C2378002B07D1054B3B
:1000C000002B02D0044800E000BF0123237010BDC4
:1000D00004000020000000000C020000084B10B5D6
:1000E000002B03D00749084800E000BF0748036819
:1000F000002B00D110BD064B002BFBD09847F9E731
:1001000000000000080000200C0200000C020000AB
:100110000000000010B5014B9847FEE79501000074
:10012000FEE700001148124970B5884204D0002350
:10013000104CCA18A24213D300210F4B0F4A93420E
:1001400012D3FF210E4B0F4A8B43936080230E4A3C
:1001500051680B4353600D4B98470D4B9847FEE792
:10016000C55804331560E4E702C3E8E70C02000059
:1001700000000020040000200400002020000020D7
:100180000000000000ED00E000400041A50100007B
:1001900015010000014A024B1A60704700093D003A
:1001A0000000002070B500260C4D0D4C641BA410FF
:1001B000A64209D1002600F019F80A4D0A4C641B2A
:1001C000A410A64205D170BDB300EB589847013684
:1001D000EEE7B300EB5898470136F2E7F80100006C
:1001E000F8010000F8010000FC010000F8B5C0466D
:1001F000F8BC08BC9E467047DD000000F8B5C0465C
:0C020000F8BC08BC9E467047B50000002A
:04020C0000093D00A8
:0400000300000125D3
:00000001FF
