S016000053484152505F4C43445F544553542E73726563BF
S11300004810002059050000550500005505000062
S113001000000000000000000000000000000000DC
S11300200000000000000000000000005505000072
S11300300000000000000000550500005505000008
S11300405505000055050000550500005505000044
S11300505505000055050000550500005505000034
S11300605505000055050000550500005505000024
S11300705505000055050000550500005505000014
S11300805505000055050000550500005505000004
S113009055050000550500005505000055050000F4
S11300A055050000550500005505000055050000E4
S11300B00000000010B5064C2378002B07D1054B37
S11300C0002B02D0044800E000BF0123237010BDC0
S11300D00C00002000000000FC070000084B10B5D5
S11300E0002B03D00749084800E000BF0748036815
S11300F0002B00D110BD064B002BFBD09847F9E72D
S11301000000000010000020FC070000FC070000B5
S11301100000000070B50020084B98470500084C0B
S1130120FA218900A047074B186007492800A04717
S1130130064B18600522064B1A6070BD8904000046
S1130140590600000000002040420F000400002077
S113015010E000E030B5084B1C68084A00258021F7
S11301604902013807D3002CFBD054609560136812
S11301700B42FCD0F5E730BD0000002010E000E0A9
S1130180704700000C4B1B68002B06D1EFF3108363
S1130190002B07D00022094B1A70074A1368013359
S11301A01360704772B6BFF35F8F0022044B1A705E
S11301B00132024B1A70F0E7280000202C000020C6
S11301C008000020084B1A68013A1A601B68002BCB
S11301D009D1064B1B78002B05D00122044B1A7061
S11301E0BFF35F8F62B67047280000202C00002008
S11301F00800002010B5082803D880001C4B1B58A9
S11302009F46002032E01B4B18692FE01A4B187DE3
S11302100007800F431C1948584327E0154B5869C1
S113022024E0144B1B6800209B071FD51249802231
S11302305200CB681342FCD00E4B1B685B0701D401
S11302400F4813E000200F4B98470A4B9B681B0490
S11302501B0C58430AE02823074AD35C00209B0761
S113026004D5044BD86801E08020000210BDC046CC
S1130270B807000030000020000C004000093D00D9
S1130280006CDC02F504000010B584B0802252003A
S11302902F4B9A60FD3A2F4B9A602F4A53681E21C8
S11302A08B4353608023DB059B78022B0FD0802384
S11302B0DB059B785BB2002B09DB8023DB05012285
S11302C09A7101329A701A009379002BFCD0204B5A
S11302D0197D802252420A431A751A7D40218A43AD
S11302E01A751E4B98471E4C0123A3716371237129
S11302F001A94B6000234B7006220A700B724B72EB
S11303000020184B98470020174B98470020174BA4
S113031098472179C9B2164B9847164B984214D87E
S11303208023DB059B78002B0FD08023DB059B7893
S11303305BB2002B09DB8023DB0501229A710022CA
S11303409A701A009379002BFCD004B010BDC046FB
S1130350000C0040001400400040004179030000FC
S1130360000400409D0300004904000089040000CB
S113037059060000001BB700064A536940210B438D
S113038053610122044B1A7019000B781342FCD1FB
S11303907047C046000400400018004070B50400D7
S11303A00D784B78002B02D08023DB001D434B7A61
S11303B0002B02D080231B011D43486801280FD95C
S11303C0431E184231D102282DD9022300220132C2
S11303D05B009842FBD880235B011D431204154344
S11303E00B7A002B02D080239B011D430426A640D8
S11303F01149124A4B6813401E42FBD1104B9847D7
S1130400A4000D4B9C466444226A80235B001A407E
S11304102A4322626146094A4B6813401E42FBD1BB
S1130420084B984770BD0022D5E7000480239B0049
S113043018430543D4E7C04600180040FC070000F9
S113044085010000C501000010B5040004228240AB
S113045009480A4943680B401A42FBD1084B9847A4
S1130460A400054B9C466444226A80235B0013432A
S11304702362044B984710BD00180040FC0700009D
S113048085010000C5010000F8B504000422824083
S11304901248134943680B401A42FBD1114B984749
S11304A00E4F0834A400E0590007000F0E4B984784
S11304B00600E559ED04ED0FE459240C0B4B984765
S11304C0002D07D1012C07D921003000084B984793
S11304D0060001E00134E6403000F8BD0018004099
S11304E0FC07000085010000F5010000C5010000C3
S11304F05906000010B50400064B98472034A400A8
S1130500054BE4582407240F044B98472000044B60
S1130510984710BD8501000000180040C501000087
S1130520890400007047000010B5054B9847054B3F
S11305309847054B9847054B9847054B984710BD7E
S11305408902000081010000250500002505000046
S113055025050000FEE7000010B51A4A1A4B9A421E
S113056011D01A00194B9A420DD2194A03339B1A1F
S11305709B0801339B000022134812498C58845075
S113058004329A42FAD1134A134B9A420AD2D34301
S113059011495B1803218B4304339B18002102C2C9
S11305A09342FCD10D4AFF210D4B8B4393600D4ABE
S11305B053687F390B4353600B4B98470B4B984759
S11305C0FEE7C046FC070000000000200C000020ED
S11305D0040000200C0000204800002000ED00E092
S11305E0000000000040004171070000F105000018
S11305F0F8B5154B9847154B9847154B80242401A3
S11306009C606B22995C02200143C9B299548025F5
S11306106D019D600132995C0143C9B299548021F6
S1130620890199606D269A5D0243D2B29A555C6144
S11306305D6159611F002600FA256D00054CFE61BD
S11306402800A047FBE7C04629050000150100006B
S11306508028004055010000002243088B4274D3D7
S113066003098B425FD3030A8B4244D3030B8B42AF
S113067028D3030C8B420DD3FF22090212BA030CB8
S11306808B4202D31212090265D0030B8B4219D399
S113069000E0090AC30B8B4201D3CB03C01A5241B9
S11306A0830B8B4201D38B03C01A5241430B8B4201
S11306B001D34B03C01A5241030B8B4201D30B03EA
S11306C0C01A5241C30A8B4201D3CB02C01A524111
S11306D0830A8B4201D38B02C01A5241430A8B42D4
S11306E001D34B02C01A5241030A8B4201D30B02BD
S11306F0C01A5241CDD2C3098B4201D3CB01C01AD7
S1130700524183098B4201D38B01C01A52414309E0
S11307108B4201D34B01C01A524103098B4201D3CE
S11307200B01C01A5241C3088B4201D3CB00C01A3B
S1130730524183088B4201D38B00C01A52414308B3
S11307408B4201D34B00C01A5241411A00D20146D8
S1130750524110467047FFE701B5002000F006F84B
S113076002BDC0460029F7D076E770477047C046FF
S113077070B500260C4D0D4C641BA410A64209D183
S1130780002600F02BF80A4D0A4C641BA410A64264
S113079005D170BDB300EB5898470136EEE7B300BE
S11307A0EB5898470136F2E7E8070000E807000035
S11307B0E8070000EC070000060200000202000047
S11307C00202000068020000680200001C0200002F
S11307D00C0200002202000056020000F8B5C046D8
S11307E0F8BC08BC9E467047DD000000F8B5C04662
S10F07F0F8BC08BC9E467047B500000031
S10F07FC401F0000080000000100000085
S90305599E
