S012000057417463684D657465722E737265633E
S113000028100020C5030000590400005904000012
S113001000000000000000000000000000000000DC
S1130020000000000000000000000000590400006F
S11300300000000000000000590400005904000002
S11300405904000059040000590400005904000038
S11300505904000059040000590400005904000028
S11300605904000059040000590400005904000018
S11300705904000059040000590400005904000008
S113008059040000590400005904000059040000F8
S113009059040000590400005904000059040000E8
S11300A059040000590400005904000059040000D8
S11300B00000000010B5064C2378002B07D1054B37
S11300C0002B02D0044800E000BF0123237010BDC0
S11300D00800002000000000E0040000084B10B5F8
S11300E0002B03D00749084800E000BF0748036815
S11300F0002B00D110BD064B002BFBD09847F9E72D
S1130100000000000C000020E0040000E0040000F7
S11301100000000080B582B000AF78607B685B09A6
S11301201800BD4602B080BD80B582B000AF7860D3
S11301307B68DB01034A944663441800BD4602B061
S113014080BDC0460028004080B582B000AF786012
S11301507B681800054B984703001800044B984728
S113016003001800BD4602B080BDC0461501000062
S11301702901000080B582B000AF78607B681F223F
S1130180134001229A4013001800BD4602B080BDFE
S113019080B500AFC046BD4680BD000080B584B0C8
S11301A000AF78600A00FB1C1A707B681800184BBB
S11301B098470300FB60FB1C1B78012B07D17B686D
S11301C01800144B98470200FB689A600AE0FB1C75
S11301D01B78002B06D17B6818000E4B9847020051
S11301E0FB685A60FA6840217B68D3185B181B7857
S11301F0DBB202221343D8B2FA6840217B68D318D9
S11302005B18021C1A70C046BD4604B080BDC046CF
S1130210490100007501000090B583B000AF78601B
S11302200A00FB1C1A70FB1C1B78002B0BD07B688C
S113023018000C4B984704007B6818000A4B984739
S11302400300A3610AE07B681800064B984704008A
S11302507B681800044B984703006361C046BD46A1
S113026003B090BD490100007501000090B583B052
S113027000AF78607B681800064B984704007B68E1
S11302801800054B98470300E361C046BD4603B020
S113029090BDC046490100007501000080B500AF63
S11302A0024B9847C046BD4680BDC0469101000040
S11302B080B582B000AF78600A00FB1C1A70FB1C8A
S11302C01A787B6811001800024B9847C046BD4657
S11302D002B080BD9D01000080B582B000AF78609F
S11302E00A00FB1C1A70FB1C1A787B6811001800AA
S11302F0024B9847C046BD4602B080BD19020000BB
S113030080B582B000AF78607B681800024B9847D4
S1130310C046BD4602B080BD6D02000080B500AF8E
S1130320094B9847094B984701212A20084B9847C5
S113033000212A20074B98470A20074B98472A2078
S1130340064B9847F8E7C046610400009D02000090
S1130350B1020000D902000095030000010300006F
S113036080B582B000AF78607B68002B0CD0084B5E
S11303707A685A60064B00229A60C046044B1A6899
S113038080235B021340F9D0C046BD4602B080BD55
S113039010E000E080B582B000AF786004E0074B65
S11303A01B681800064B98477B685A1E7A60002B1E
S11303B0F5D1C046BD4602B080BDC0460000002055
S11303C06103000080B582B000AF194B7B60194B0C
S11303D03B607A683B689A420CD007E03B681A1D80
S11303E03A607A68111D796012681A603A68124B93
S11303F09A42F3D3114B3B6004E03B681A1D3A6008
S113040000221A603A680E4B9A42F6D30D4B7B6079
S11304100D4B7A68FF218A439A600C4A5368802105
S11304200B4353600A4B98470A4B9847FEE7C04674
S1130430E004000000000020080000200800002064
S1130440240000200000000000ED00E00040004116
S1130450790400001D03000080B500AFFEE7000032
S113046080B500AF024B034A1A60C046BD4680BD4A
S11304700400002000093D0070B500260C4D0D4C11
S1130480641BA410A64209D1002600F019F80A4DF5
S11304900A4C641BA410A64205D170BDB300EB58EE
S11304A098470136EEE7B300EB5898470136F2E778
S11304B0CC040000CC040000CC040000D0040000F4
S11304C0F8B5C046F8BC08BC9E467047DD00000085
S11304D0F8B5C046F8BC08BC9E467047B50000009D
S10B04E0401F000000093D006B
S90303C534
